{
  "contractName": "SmallBusinessInventory",
  "abi": [
    {
      "inputs": [],
      "stateMutability": "nonpayable",
      "type": "constructor"
    },
    {
      "anonymous": false,
      "inputs": [
        {
          "indexed": false,
          "internalType": "uint256",
          "name": "index",
          "type": "uint256"
        },
        {
          "indexed": false,
          "internalType": "string",
          "name": "name",
          "type": "string"
        },
        {
          "indexed": false,
          "internalType": "uint256",
          "name": "quantity",
          "type": "uint256"
        },
        {
          "indexed": false,
          "internalType": "uint256",
          "name": "price",
          "type": "uint256"
        }
      ],
      "name": "ProductAdded",
      "type": "event"
    },
    {
      "anonymous": false,
      "inputs": [
        {
          "indexed": false,
          "internalType": "uint256",
          "name": "index",
          "type": "uint256"
        }
      ],
      "name": "ProductRemoved",
      "type": "event"
    },
    {
      "anonymous": false,
      "inputs": [
        {
          "indexed": false,
          "internalType": "uint256",
          "name": "index",
          "type": "uint256"
        },
        {
          "indexed": false,
          "internalType": "uint256",
          "name": "quantity",
          "type": "uint256"
        }
      ],
      "name": "ProductSold",
      "type": "event"
    },
    {
      "anonymous": false,
      "inputs": [
        {
          "indexed": false,
          "internalType": "uint256",
          "name": "index",
          "type": "uint256"
        },
        {
          "indexed": false,
          "internalType": "uint256",
          "name": "oldQuantity",
          "type": "uint256"
        },
        {
          "indexed": false,
          "internalType": "uint256",
          "name": "newQuantity",
          "type": "uint256"
        }
      ],
      "name": "QuantityUpdated",
      "type": "event"
    },
    {
      "inputs": [],
      "name": "owner",
      "outputs": [
        {
          "internalType": "address",
          "name": "",
          "type": "address"
        }
      ],
      "stateMutability": "view",
      "type": "function",
      "constant": true
    },
    {
      "inputs": [],
      "name": "productIndex",
      "outputs": [
        {
          "internalType": "uint256",
          "name": "",
          "type": "uint256"
        }
      ],
      "stateMutability": "view",
      "type": "function",
      "constant": true
    },
    {
      "inputs": [
        {
          "internalType": "uint256",
          "name": "",
          "type": "uint256"
        }
      ],
      "name": "products",
      "outputs": [
        {
          "internalType": "string",
          "name": "name",
          "type": "string"
        },
        {
          "internalType": "uint256",
          "name": "quantity",
          "type": "uint256"
        },
        {
          "internalType": "uint256",
          "name": "price",
          "type": "uint256"
        }
      ],
      "stateMutability": "view",
      "type": "function",
      "constant": true
    },
    {
      "inputs": [
        {
          "internalType": "string",
          "name": "name",
          "type": "string"
        },
        {
          "internalType": "uint256",
          "name": "quantity",
          "type": "uint256"
        },
        {
          "internalType": "uint256",
          "name": "price",
          "type": "uint256"
        }
      ],
      "name": "addProduct",
      "outputs": [],
      "stateMutability": "nonpayable",
      "type": "function"
    },
    {
      "inputs": [
        {
          "internalType": "uint256",
          "name": "index",
          "type": "uint256"
        },
        {
          "internalType": "uint256",
          "name": "quantity",
          "type": "uint256"
        }
      ],
      "name": "updateQuantity",
      "outputs": [],
      "stateMutability": "nonpayable",
      "type": "function"
    },
    {
      "inputs": [
        {
          "internalType": "uint256",
          "name": "index",
          "type": "uint256"
        },
        {
          "internalType": "uint256",
          "name": "quantity",
          "type": "uint256"
        }
      ],
      "name": "sellProduct",
      "outputs": [],
      "stateMutability": "nonpayable",
      "type": "function"
    },
    {
      "inputs": [
        {
          "internalType": "uint256",
          "name": "index",
          "type": "uint256"
        }
      ],
      "name": "removeProduct",
      "outputs": [],
      "stateMutability": "nonpayable",
      "type": "function"
    },
    {
      "inputs": [
        {
          "internalType": "uint256",
          "name": "index",
          "type": "uint256"
        }
      ],
      "name": "checkProductQuantity",
      "outputs": [
        {
          "internalType": "uint256",
          "name": "quantity",
          "type": "uint256"
        }
      ],
      "stateMutability": "view",
      "type": "function",
      "constant": true
    },
    {
      "inputs": [],
      "name": "getProducts",
      "outputs": [
        {
          "components": [
            {
              "internalType": "string",
              "name": "name",
              "type": "string"
            },
            {
              "internalType": "uint256",
              "name": "quantity",
              "type": "uint256"
            },
            {
              "internalType": "uint256",
              "name": "price",
              "type": "uint256"
            }
          ],
          "internalType": "struct SmallBusinessInventory.Product[]",
          "name": "",
          "type": "tuple[]"
        }
      ],
      "stateMutability": "view",
      "type": "function",
      "constant": true
    }
  ],
  "bytecode": "0x608060405234801561001057600080fd5b5033600260006101000a81548173ffffffffffffffffffffffffffffffffffffffff021916908373ffffffffffffffffffffffffffffffffffffffff1602179055506118e2806100616000396000f3fe608060405234801561001057600080fd5b50600436106100935760003560e01c80637acc0b20116100665780637acc0b20146101085780638da5cb5b1461013a578063c29b2f2014610158578063c897d5a614610176578063d02b750f1461019457610093565b8063125b0b341461009857806318b30a48146100b45780635ee95cae146100d057806379cd4921146100ec575b600080fd5b6100b260048036038101906100ad9190610e3f565b6101c4565b005b6100ce60048036038101906100c99190610ecf565b6103dd565b005b6100ea60048036038101906100e59190610ea6565b6105b5565b005b61010660048036038101906101019190610ecf565b6107b3565b005b610122600480360381019061011d9190610ea6565b61093f565b6040516101319392919061137e565b60405180910390f35b6101426109f1565b60405161014f9190611341565b60405180910390f35b610160610a17565b60405161016d919061135c565b60405180910390f35b61017e610bc8565b60405161018b91906114bc565b60405180910390f35b6101ae60048036038101906101a99190610ea6565b610bce565b6040516101bb91906114bc565b60405180910390f35b600260009054906101000a900473ffffffffffffffffffffffffffffffffffffffff1673ffffffffffffffffffffffffffffffffffffffff163373ffffffffffffffffffffffffffffffffffffffff1614610254576040517f08c379a000000000000000000000000000000000000000000000000000000000815260040161024b9061143c565b60405180910390fd5b6000835111610298576040517f08c379a000000000000000000000000000000000000000000000000000000000815260040161028f9061147c565b60405180910390fd5b600082116102db576040517f08c379a00000000000000000000000000000000000000000000000000000000081526004016102d2906113dc565b60405180910390fd5b6000811161031e576040517f08c379a00000000000000000000000000000000000000000000000000000000081526004016103159061149c565b60405180910390fd5b60405180606001604052808481526020018381526020018281525060008060015481526020019081526020016000206000820151816000019080519060200190610369929190610c31565b5060208201518160010155604082015181600201559050507f0107e99fb43ba873db8a5ce7c34a12cd44cd3041167cff32040ddb6aca455ae66001548484846040516103b894939291906114d7565b60405180910390a1600160008154809291906103d3906117ae565b9190505550505050565b600260009054906101000a900473ffffffffffffffffffffffffffffffffffffffff1673ffffffffffffffffffffffffffffffffffffffff163373ffffffffffffffffffffffffffffffffffffffff161461046d576040517f08c379a00000000000000000000000000000000000000000000000000000000081526004016104649061143c565b60405180910390fd5b60015482106104b1576040517f08c379a00000000000000000000000000000000000000000000000000000000081526004016104a89061145c565b60405180910390fd5b80600080848152602001908152602001600020600101541015610509576040517f08c379a00000000000000000000000000000000000000000000000000000000081526004016105009061141c565b60405180910390fd5b6000811161054c576040517f08c379a0000000000000000000000000000000000000000000000000000000008152600401610543906113bc565b60405180910390fd5b80600080848152602001908152602001600020600101600082825461057191906116a0565b925050819055507f23a1684ce44b9a79ff32baebeef9269b128c6e21d507a2374852b1bb4832502782826040516105a9929190611523565b60405180910390a15050565b600260009054906101000a900473ffffffffffffffffffffffffffffffffffffffff1673ffffffffffffffffffffffffffffffffffffffff163373ffffffffffffffffffffffffffffffffffffffff1614610645576040517f08c379a000000000000000000000000000000000000000000000000000000000815260040161063c9061143c565b60405180910390fd5b6001548110610689576040517f08c379a00000000000000000000000000000000000000000000000000000000081526004016106809061145c565b60405180910390fd5b60008190505b6001805461069d91906116a0565b81101561071e576000806001836106b4919061164a565b815260200190815260200160002060008083815260200190815260200160002060008201816000019080546106e89061177c565b6106f3929190610cb7565b5060018201548160010155600282015481600201559050508080610716906117ae565b91505061068f565b506000806001805461073091906116a0565b81526020019081526020016000206000808201600061074f9190610d44565b6001820160009055600282016000905550506001600081548092919061077490611752565b91905055507f07015631cff457b5b13492c2045e70c6305a0a4aa773e432e79abbe2cf52c1eb816040516107a891906114bc565b60405180910390a150565b600260009054906101000a900473ffffffffffffffffffffffffffffffffffffffff1673ffffffffffffffffffffffffffffffffffffffff163373ffffffffffffffffffffffffffffffffffffffff1614610843576040517f08c379a000000000000000000000000000000000000000000000000000000000815260040161083a9061143c565b60405180910390fd5b6001548210610887576040517f08c379a000000000000000000000000000000000000000000000000000000000815260040161087e9061145c565b60405180910390fd5b60008110156108cb576040517f08c379a00000000000000000000000000000000000000000000000000000000081526004016108c2906113fc565b60405180910390fd5b600080600084815260200190815260200160002060010154905081600080858152602001908152602001600020600101819055507f5170190995b02fc1ea399c439b01725a8bd24a969fcd0b83453e3fd25ba753608382846040516109329392919061154c565b60405180910390a1505050565b60006020528060005260406000206000915090508060000180546109629061177c565b80601f016020809104026020016040519081016040528092919081815260200182805461098e9061177c565b80156109db5780601f106109b0576101008083540402835291602001916109db565b820191906000526020600020905b8154815290600101906020018083116109be57829003601f168201915b5050505050908060010154908060020154905083565b600260009054906101000a900473ffffffffffffffffffffffffffffffffffffffff1681565b6060600060015467ffffffffffffffff811115610a5d577f4e487b7100000000000000000000000000000000000000000000000000000000600052604160045260246000fd5b604051908082528060200260200182016040528015610a9657816020015b610a83610d84565b815260200190600190039081610a7b5790505b50905060005b600154811015610bc057600080828152602001908152602001600020604051806060016040529081600082018054610ad39061177c565b80601f0160208091040260200160405190810160405280929190818152602001828054610aff9061177c565b8015610b4c5780601f10610b2157610100808354040283529160200191610b4c565b820191906000526020600020905b815481529060010190602001808311610b2f57829003601f168201915b5050505050815260200160018201548152602001600282015481525050828281518110610ba2577f4e487b7100000000000000000000000000000000000000000000000000000000600052603260045260246000fd5b60200260200101819052508080610bb8906117ae565b915050610a9c565b508091505090565b60015481565b60006001548210610c14576040517f08c379a0000000000000000000000000000000000000000000000000000000008152600401610c0b9061145c565b60405180910390fd5b600080838152602001908152602001600020600101549050919050565b828054610c3d9061177c565b90600052602060002090601f016020900481019282610c5f5760008555610ca6565b82601f10610c7857805160ff1916838001178555610ca6565b82800160010185558215610ca6579182015b82811115610ca5578251825591602001919060010190610c8a565b5b509050610cb39190610da5565b5090565b828054610cc39061177c565b90600052602060002090601f016020900481019282610ce55760008555610d33565b82601f10610cf65780548555610d33565b82800160010185558215610d3357600052602060002091601f016020900482015b82811115610d32578254825591600101919060010190610d17565b5b509050610d409190610da5565b5090565b508054610d509061177c565b6000825580601f10610d625750610d81565b601f016020900490600052602060002090810190610d809190610da5565b5b50565b60405180606001604052806060815260200160008152602001600081525090565b5b80821115610dbe576000816000905550600101610da6565b5090565b6000610dd5610dd0846115b4565b611583565b905082815260208101848484011115610ded57600080fd5b610df8848285611710565b509392505050565b600082601f830112610e1157600080fd5b8135610e21848260208601610dc2565b91505092915050565b600081359050610e3981611895565b92915050565b600080600060608486031215610e5457600080fd5b600084013567ffffffffffffffff811115610e6e57600080fd5b610e7a86828701610e00565b9350506020610e8b86828701610e2a565b9250506040610e9c86828701610e2a565b9150509250925092565b600060208284031215610eb857600080fd5b6000610ec684828501610e2a565b91505092915050565b60008060408385031215610ee257600080fd5b6000610ef085828601610e2a565b9250506020610f0185828601610e2a565b9150509250929050565b6000610f1783836112d3565b905092915050565b610f28816116d4565b82525050565b6000610f39826115f4565b610f438185611617565b935083602082028501610f55856115e4565b8060005b85811015610f915784840389528151610f728582610f0b565b9450610f7d8361160a565b925060208a01995050600181019050610f59565b50829750879550505050505092915050565b6000610fae826115ff565b610fb88185611628565b9350610fc881856020860161171f565b610fd181611884565b840191505092915050565b6000610fe7826115ff565b610ff18185611639565b935061100181856020860161171f565b61100a81611884565b840191505092915050565b6000611022602783611639565b91507f53616c65207175616e74697479206d757374206265206772656174657220746860008301527f616e207a65726f000000000000000000000000000000000000000000000000006020830152604082019050919050565b6000611088602a83611639565b91507f50726f64756374207175616e74697479206d757374206265206772656174657260008301527f207468616e207a65726f000000000000000000000000000000000000000000006020830152604082019050919050565b60006110ee602383611639565b91507f50726f64756374207175616e746974792063616e6e6f74206265206e6567617460008301527f69766500000000000000000000000000000000000000000000000000000000006020830152604082019050919050565b6000611154601883611639565b91507f4e6f7420656e6f7567682073746f636b20746f2073656c6c00000000000000006000830152602082019050919050565b6000611194603283611639565b91507f4f6e6c792074686520636f6e7472616374206f776e65722063616e207065726660008301527f6f726d2074686973206f7065726174696f6e00000000000000000000000000006020830152604082019050919050565b60006111fa601183611639565b91507f50726f64756374206e6f7420666f756e640000000000000000000000000000006000830152602082019050919050565b600061123a601c83611639565b91507f50726f64756374206e616d652063616e6e6f7420626520656d707479000000006000830152602082019050919050565b600061127a602783611639565b91507f50726f64756374207072696365206d757374206265206772656174657220746860008301527f616e207a65726f000000000000000000000000000000000000000000000000006020830152604082019050919050565b600060608301600083015184820360008601526112f08282610fa3565b91505060208301516113056020860182611323565b5060408301516113186040860182611323565b508091505092915050565b61132c81611706565b82525050565b61133b81611706565b82525050565b60006020820190506113566000830184610f1f565b92915050565b600060208201905081810360008301526113768184610f2e565b905092915050565b600060608201905081810360008301526113988186610fdc565b90506113a76020830185611332565b6113b46040830184611332565b949350505050565b600060208201905081810360008301526113d581611015565b9050919050565b600060208201905081810360008301526113f58161107b565b9050919050565b60006020820190508181036000830152611415816110e1565b9050919050565b6000602082019050818103600083015261143581611147565b9050919050565b6000602082019050818103600083015261145581611187565b9050919050565b60006020820190508181036000830152611475816111ed565b9050919050565b600060208201905081810360008301526114958161122d565b9050919050565b600060208201905081810360008301526114b58161126d565b9050919050565b60006020820190506114d16000830184611332565b92915050565b60006080820190506114ec6000830187611332565b81810360208301526114fe8186610fdc565b905061150d6040830185611332565b61151a6060830184611332565b95945050505050565b60006040820190506115386000830185611332565b6115456020830184611332565b9392505050565b60006060820190506115616000830186611332565b61156e6020830185611332565b61157b6040830184611332565b949350505050565b6000604051905081810181811067ffffffffffffffff821117156115aa576115a9611855565b5b8060405250919050565b600067ffffffffffffffff8211156115cf576115ce611855565b5b601f19601f8301169050602081019050919050565b6000819050602082019050919050565b600081519050919050565b600081519050919050565b6000602082019050919050565b600082825260208201905092915050565b600082825260208201905092915050565b600082825260208201905092915050565b600061165582611706565b915061166083611706565b9250827fffffffffffffffffffffffffffffffffffffffffffffffffffffffffffffffff03821115611695576116946117f7565b5b828201905092915050565b60006116ab82611706565b91506116b683611706565b9250828210156116c9576116c86117f7565b5b828203905092915050565b60006116df826116e6565b9050919050565b600073ffffffffffffffffffffffffffffffffffffffff82169050919050565b6000819050919050565b82818337600083830152505050565b60005b8381101561173d578082015181840152602081019050611722565b8381111561174c576000848401525b50505050565b600061175d82611706565b91506000821415611771576117706117f7565b5b600182039050919050565b6000600282049050600182168061179457607f821691505b602082108114156117a8576117a7611826565b5b50919050565b60006117b982611706565b91507fffffffffffffffffffffffffffffffffffffffffffffffffffffffffffffffff8214156117ec576117eb6117f7565b5b600182019050919050565b7f4e487b7100000000000000000000000000000000000000000000000000000000600052601160045260246000fd5b7f4e487b7100000000000000000000000000000000000000000000000000000000600052602260045260246000fd5b7f4e487b7100000000000000000000000000000000000000000000000000000000600052604160045260246000fd5b6000601f19601f8301169050919050565b61189e81611706565b81146118a957600080fd5b5056fea2646970667358221220fa7890c55b1433bdf6ebe62cfc53ff1af3789f152685b44f385c51bb35f91b5064736f6c63430008000033",
  "immutableReferences": {},
  "source": "// SPDX-License-Identifier: GPL-3.0\npragma solidity >=0.4.16 <0.9.0;\n\ncontract SmallBusinessInventory {\n    struct Product {\n        string name;\n        uint quantity;\n        uint price;\n    }\n\n    mapping (uint => Product) public products;\n    uint public productIndex;\n\n    address public owner;\n\n    event ProductAdded(uint index, string name, uint quantity, uint price);\n    event QuantityUpdated(uint index, uint oldQuantity, uint newQuantity);\n    event ProductSold(uint index, uint quantity);\n    event ProductRemoved(uint index);\n\n    modifier onlyOwner() {\n        require(msg.sender == owner, \"Only the contract owner can perform this operation\");\n        _;\n    }\n\n    constructor() {\n        owner = msg.sender;\n    }\n\n    function addProduct(string memory name, uint quantity, uint price) public onlyOwner {\n        require(bytes(name).length > 0, \"Product name cannot be empty\");\n        require(quantity > 0, \"Product quantity must be greater than zero\");\n        require(price > 0, \"Product price must be greater than zero\");\n\n        products[productIndex] = Product(name, quantity, price);\n        emit ProductAdded(productIndex, name, quantity, price);\n        productIndex++;\n    }\n\n    function updateQuantity(uint index, uint quantity) public onlyOwner {\n        require(index < productIndex, \"Product not found\");\n        require(quantity >= 0, \"Product quantity cannot be negative\");\n\n        uint oldQuantity = products[index].quantity;\n        products[index].quantity = quantity;\n        emit QuantityUpdated(index, oldQuantity, quantity);\n    }\n\n    function sellProduct(uint index, uint quantity) public onlyOwner {\n        require(index < productIndex, \"Product not found\");\n        require(products[index].quantity >= quantity, \"Not enough stock to sell\");\n        require(quantity > 0, \"Sale quantity must be greater than zero\");\n\n        products[index].quantity -= quantity;\n        emit ProductSold(index, quantity);\n    }\n\n    function removeProduct(uint index) public onlyOwner {\n        require(index < productIndex, \"Product not found\");\n\n        for (uint i = index; i < productIndex-1; i++){\n            products[i] = products[i+1];\n        }\n        delete products[productIndex-1];\n        productIndex--;\n        emit ProductRemoved(index);\n    }\n\n    function checkProductQuantity(uint index) public view returns (uint quantity) {\n        require(index < productIndex, \"Product not found\");\n        return products[index].quantity;\n    }\n\n    function getProducts() public view returns (Product[] memory) {\n       Product[] memory productList = new Product[](productIndex);\n        for (uint i = 0; i < productIndex; i++) {\n            productList[i] = products[i];\n        }\n        return productList;\n    }\n}\n",
  "sourcePath": "/Users/user/Desktop/ap/contracts/SmallBusinessInventory.sol",
  "compiler": {
    "name": "solc",
    "version": "0.8.0+commit.c7dfd78e.Emscripten.clang"
  },
  "schemaVersion": "3.4.16",
  "updatedAt": "2024-03-21T01:04:26.405Z",
  "networkType": "ethereum",
  "devdoc": {
    "kind": "dev",
    "methods": {},
    "version": 1
  },
  "userdoc": {
    "kind": "user",
    "methods": {},
    "version": 1
  }
}